{
  "contractName": "MarsV2",
  "abi": [
    {
      "anonymous": false,
      "inputs": [
        {
          "indexed": false,
          "internalType": "address",
          "name": "previousAdmin",
          "type": "address"
        },
        {
          "indexed": false,
          "internalType": "address",
          "name": "newAdmin",
          "type": "address"
        }
      ],
      "name": "AdminChanged",
      "type": "event"
    },
    {
      "anonymous": false,
      "inputs": [
        {
          "indexed": true,
          "internalType": "address",
          "name": "owner",
          "type": "address"
        },
        {
          "indexed": true,
          "internalType": "address",
          "name": "spender",
          "type": "address"
        },
        {
          "indexed": false,
          "internalType": "uint256",
          "name": "value",
          "type": "uint256"
        }
      ],
      "name": "Approval",
      "type": "event"
    },
    {
      "anonymous": false,
      "inputs": [
        {
          "indexed": true,
          "internalType": "address",
          "name": "beacon",
          "type": "address"
        }
      ],
      "name": "BeaconUpgraded",
      "type": "event"
    },
    {
      "anonymous": false,
      "inputs": [
        {
          "indexed": true,
          "internalType": "address",
          "name": "previousOwner",
          "type": "address"
        },
        {
          "indexed": true,
          "internalType": "address",
          "name": "newOwner",
          "type": "address"
        }
      ],
      "name": "OwnershipTransferred",
      "type": "event"
    },
    {
      "anonymous": false,
      "inputs": [
        {
          "indexed": true,
          "internalType": "address",
          "name": "from",
          "type": "address"
        },
        {
          "indexed": true,
          "internalType": "address",
          "name": "to",
          "type": "address"
        },
        {
          "indexed": false,
          "internalType": "uint256",
          "name": "value",
          "type": "uint256"
        }
      ],
      "name": "Transfer",
      "type": "event"
    },
    {
      "anonymous": false,
      "inputs": [
        {
          "indexed": true,
          "internalType": "address",
          "name": "implementation",
          "type": "address"
        }
      ],
      "name": "Upgraded",
      "type": "event"
    },
    {
      "inputs": [
        {
          "internalType": "address",
          "name": "owner",
          "type": "address"
        },
        {
          "internalType": "address",
          "name": "spender",
          "type": "address"
        }
      ],
      "name": "allowance",
      "outputs": [
        {
          "internalType": "uint256",
          "name": "",
          "type": "uint256"
        }
      ],
      "stateMutability": "view",
      "type": "function"
    },
    {
      "inputs": [
        {
          "internalType": "address",
          "name": "spender",
          "type": "address"
        },
        {
          "internalType": "uint256",
          "name": "amount",
          "type": "uint256"
        }
      ],
      "name": "approve",
      "outputs": [
        {
          "internalType": "bool",
          "name": "",
          "type": "bool"
        }
      ],
      "stateMutability": "nonpayable",
      "type": "function"
    },
    {
      "inputs": [
        {
          "internalType": "address",
          "name": "account",
          "type": "address"
        }
      ],
      "name": "balanceOf",
      "outputs": [
        {
          "internalType": "uint256",
          "name": "",
          "type": "uint256"
        }
      ],
      "stateMutability": "view",
      "type": "function"
    },
    {
      "inputs": [],
      "name": "decimals",
      "outputs": [
        {
          "internalType": "uint8",
          "name": "",
          "type": "uint8"
        }
      ],
      "stateMutability": "view",
      "type": "function"
    },
    {
      "inputs": [
        {
          "internalType": "address",
          "name": "spender",
          "type": "address"
        },
        {
          "internalType": "uint256",
          "name": "subtractedValue",
          "type": "uint256"
        }
      ],
      "name": "decreaseAllowance",
      "outputs": [
        {
          "internalType": "bool",
          "name": "",
          "type": "bool"
        }
      ],
      "stateMutability": "nonpayable",
      "type": "function"
    },
    {
      "inputs": [
        {
          "internalType": "address",
          "name": "spender",
          "type": "address"
        },
        {
          "internalType": "uint256",
          "name": "addedValue",
          "type": "uint256"
        }
      ],
      "name": "increaseAllowance",
      "outputs": [
        {
          "internalType": "bool",
          "name": "",
          "type": "bool"
        }
      ],
      "stateMutability": "nonpayable",
      "type": "function"
    },
    {
      "inputs": [],
      "name": "initialize",
      "outputs": [],
      "stateMutability": "nonpayable",
      "type": "function"
    },
    {
      "inputs": [],
      "name": "name",
      "outputs": [
        {
          "internalType": "string",
          "name": "",
          "type": "string"
        }
      ],
      "stateMutability": "view",
      "type": "function"
    },
    {
      "inputs": [],
      "name": "owner",
      "outputs": [
        {
          "internalType": "address",
          "name": "",
          "type": "address"
        }
      ],
      "stateMutability": "view",
      "type": "function"
    },
    {
      "inputs": [],
      "name": "renounceOwnership",
      "outputs": [],
      "stateMutability": "nonpayable",
      "type": "function"
    },
    {
      "inputs": [],
      "name": "symbol",
      "outputs": [
        {
          "internalType": "string",
          "name": "",
          "type": "string"
        }
      ],
      "stateMutability": "view",
      "type": "function"
    },
    {
      "inputs": [],
      "name": "totalSupply",
      "outputs": [
        {
          "internalType": "uint256",
          "name": "",
          "type": "uint256"
        }
      ],
      "stateMutability": "view",
      "type": "function"
    },
    {
      "inputs": [
        {
          "internalType": "address",
          "name": "recipient",
          "type": "address"
        },
        {
          "internalType": "uint256",
          "name": "amount",
          "type": "uint256"
        }
      ],
      "name": "transfer",
      "outputs": [
        {
          "internalType": "bool",
          "name": "",
          "type": "bool"
        }
      ],
      "stateMutability": "nonpayable",
      "type": "function"
    },
    {
      "inputs": [
        {
          "internalType": "address",
          "name": "sender",
          "type": "address"
        },
        {
          "internalType": "address",
          "name": "recipient",
          "type": "address"
        },
        {
          "internalType": "uint256",
          "name": "amount",
          "type": "uint256"
        }
      ],
      "name": "transferFrom",
      "outputs": [
        {
          "internalType": "bool",
          "name": "",
          "type": "bool"
        }
      ],
      "stateMutability": "nonpayable",
      "type": "function"
    },
    {
      "inputs": [
        {
          "internalType": "address",
          "name": "newOwner",
          "type": "address"
        }
      ],
      "name": "transferOwnership",
      "outputs": [],
      "stateMutability": "nonpayable",
      "type": "function"
    },
    {
      "inputs": [
        {
          "internalType": "address",
          "name": "newImplementation",
          "type": "address"
        }
      ],
      "name": "upgradeTo",
      "outputs": [],
      "stateMutability": "nonpayable",
      "type": "function"
    },
    {
      "inputs": [
        {
          "internalType": "address",
          "name": "newImplementation",
          "type": "address"
        },
        {
          "internalType": "bytes",
          "name": "data",
          "type": "bytes"
        }
      ],
      "name": "upgradeToAndCall",
      "outputs": [],
      "stateMutability": "payable",
      "type": "function"
    },
    {
      "inputs": [
        {
          "internalType": "uint256",
          "name": "val",
          "type": "uint256"
        }
      ],
      "name": "setFee",
      "outputs": [],
      "stateMutability": "nonpayable",
      "type": "function"
    },
    {
      "inputs": [],
      "name": "getFee",
      "outputs": [
        {
          "internalType": "uint256",
          "name": "",
          "type": "uint256"
        }
      ],
      "stateMutability": "view",
      "type": "function"
    },
    {
      "inputs": [],
      "name": "version",
      "outputs": [
        {
          "internalType": "string",
          "name": "",
          "type": "string"
        }
      ],
      "stateMutability": "pure",
      "type": "function"
    }
  ],
  "bytecode": "0x60a06040523073ffffffffffffffffffffffffffffffffffffffff1660809073ffffffffffffffffffffffffffffffffffffffff1660601b81525034801561004657600080fd5b5060805160601c612fe461007a6000396000818161067e0152818161070d015281816108d901526109680152612fe46000f3fe60806040526004361061011f5760003560e01c806370a08231116100a0578063a457c2d711610064578063a457c2d7146103b6578063a9059cbb146103f3578063ced72f8714610430578063dd62ed3e1461045b578063f2fde38b146104985761011f565b806370a08231146102f5578063715018a6146103325780638129fc1c146103495780638da5cb5b1461036057806395d89b411461038b5761011f565b80633659cfe6116100e75780633659cfe61461021f57806339509351146102485780634f1ef2861461028557806354fd4d50146102a157806369fe0e2d146102cc5761011f565b806306fdde0314610124578063095ea7b31461014f57806318160ddd1461018c57806323b872dd146101b7578063313ce567146101f4575b600080fd5b34801561013057600080fd5b506101396104c1565b60405161014691906123a0565b60405180910390f35b34801561015b57600080fd5b5061017660048036038101906101719190611ff5565b610553565b6040516101839190612385565b60405180910390f35b34801561019857600080fd5b506101a1610571565b6040516101ae91906125e2565b60405180910390f35b3480156101c357600080fd5b506101de60048036038101906101d99190611f52565b61057b565b6040516101eb9190612385565b60405180910390f35b34801561020057600080fd5b50610209610673565b60405161021691906125fd565b60405180910390f35b34801561022b57600080fd5b5061024660048036038101906102419190611eed565b61067c565b005b34801561025457600080fd5b5061026f600480360381019061026a9190611ff5565b61082b565b60405161027c9190612385565b60405180910390f35b61029f600480360381019061029a9190611fa1565b6108d7565b005b3480156102ad57600080fd5b506102b6610a14565b6040516102c391906123a0565b60405180910390f35b3480156102d857600080fd5b506102f360048036038101906102ee9190612031565b610a51565b005b34801561030157600080fd5b5061031c60048036038101906103179190611eed565b610a5b565b60405161032991906125e2565b60405180910390f35b34801561033e57600080fd5b50610347610aa4565b005b34801561035557600080fd5b5061035e610b2c565b005b34801561036c57600080fd5b50610375610cb7565b604051610382919061236a565b60405180910390f35b34801561039757600080fd5b506103a0610ce1565b6040516103ad91906123a0565b60405180910390f35b3480156103c257600080fd5b506103dd60048036038101906103d89190611ff5565b610d73565b6040516103ea9190612385565b60405180910390f35b3480156103ff57600080fd5b5061041a60048036038101906104159190611ff5565b610e5e565b6040516104279190612385565b60405180910390f35b34801561043c57600080fd5b50610445610e7c565b60405161045291906125e2565b60405180910390f35b34801561046757600080fd5b50610482600480360381019061047d9190611f16565b610e86565b60405161048f91906125e2565b60405180910390f35b3480156104a457600080fd5b506104bf60048036038101906104ba9190611eed565b610f0d565b005b6060603680546104d090612958565b80601f01602080910402602001604051908101604052809291908181526020018280546104fc90612958565b80156105495780601f1061051e57610100808354040283529160200191610549565b820191906000526020600020905b81548152906001019060200180831161052c57829003601f168201915b5050505050905090565b6000610567610560611005565b848461100d565b6001905092915050565b6000603554905090565b60006105888484846111d8565b6000603460008673ffffffffffffffffffffffffffffffffffffffff1673ffffffffffffffffffffffffffffffffffffffff16815260200190815260200160002060006105d3611005565b73ffffffffffffffffffffffffffffffffffffffff1673ffffffffffffffffffffffffffffffffffffffff16815260200190815260200160002054905082811015610653576040517f08c379a000000000000000000000000000000000000000000000000000000000815260040161064a906124e2565b60405180910390fd5b6106678561065f611005565b85840361100d565b60019150509392505050565b60006012905090565b7f000000000000000000000000000000000000000000000000000000000000000073ffffffffffffffffffffffffffffffffffffffff163073ffffffffffffffffffffffffffffffffffffffff16141561070b576040517f08c379a000000000000000000000000000000000000000000000000000000000815260040161070290612442565b60405180910390fd5b7f000000000000000000000000000000000000000000000000000000000000000073ffffffffffffffffffffffffffffffffffffffff1661074a61145c565b73ffffffffffffffffffffffffffffffffffffffff16146107a0576040517f08c379a000000000000000000000000000000000000000000000000000000000815260040161079790612482565b60405180910390fd5b6107a9816114b3565b61082881600067ffffffffffffffff8111156107ee577f4e487b7100000000000000000000000000000000000000000000000000000000600052604160045260246000fd5b6040519080825280601f01601f1916602001820160405280156108205781602001600182028036833780820191505090505b506000611532565b50565b60006108cd610838611005565b848460346000610846611005565b73ffffffffffffffffffffffffffffffffffffffff1673ffffffffffffffffffffffffffffffffffffffff16815260200190815260200160002060008873ffffffffffffffffffffffffffffffffffffffff1673ffffffffffffffffffffffffffffffffffffffff168152602001908152602001600020546108c891906126a0565b61100d565b6001905092915050565b7f000000000000000000000000000000000000000000000000000000000000000073ffffffffffffffffffffffffffffffffffffffff163073ffffffffffffffffffffffffffffffffffffffff161415610966576040517f08c379a000000000000000000000000000000000000000000000000000000000815260040161095d90612442565b60405180910390fd5b7f000000000000000000000000000000000000000000000000000000000000000073ffffffffffffffffffffffffffffffffffffffff166109a561145c565b73ffffffffffffffffffffffffffffffffffffffff16146109fb576040517f08c379a00000000000000000000000000000000000000000000000000000000081526004016109f290612482565b60405180910390fd5b610a04826114b3565b610a1082826001611532565b5050565b60606040518060400160405280600381526020017f7632210000000000000000000000000000000000000000000000000000000000815250905090565b8060fb8190555050565b6000603360008373ffffffffffffffffffffffffffffffffffffffff1673ffffffffffffffffffffffffffffffffffffffff168152602001908152602001600020549050919050565b610aac611005565b73ffffffffffffffffffffffffffffffffffffffff16610aca610cb7565b73ffffffffffffffffffffffffffffffffffffffff1614610b20576040517f08c379a0000000000000000000000000000000000000000000000000000000008152600401610b1790612502565b60405180910390fd5b610b2a6000611703565b565b600060019054906101000a900460ff16610b545760008054906101000a900460ff1615610b5d565b610b5c6117c9565b5b610b9c576040517f08c379a0000000000000000000000000000000000000000000000000000000008152600401610b93906124a2565b60405180910390fd5b60008060019054906101000a900460ff161590508015610bec576001600060016101000a81548160ff02191690831515021790555060016000806101000a81548160ff0219169083151502179055505b610c606040518060400160405280600481526020017f4d617273000000000000000000000000000000000000000000000000000000008152506040518060400160405280600481526020017f4d415253000000000000000000000000000000000000000000000000000000008152506117da565b610c6861183f565b610c9333610c74610673565b600a610c809190612749565b62989680610c8e9190612867565b6118a0565b8015610cb45760008060016101000a81548160ff0219169083151502179055505b50565b600060c960009054906101000a900473ffffffffffffffffffffffffffffffffffffffff16905090565b606060378054610cf090612958565b80601f0160208091040260200160405190810160405280929190818152602001828054610d1c90612958565b8015610d695780601f10610d3e57610100808354040283529160200191610d69565b820191906000526020600020905b815481529060010190602001808311610d4c57829003601f168201915b5050505050905090565b60008060346000610d82611005565b73ffffffffffffffffffffffffffffffffffffffff1673ffffffffffffffffffffffffffffffffffffffff16815260200190815260200160002060008573ffffffffffffffffffffffffffffffffffffffff1673ffffffffffffffffffffffffffffffffffffffff16815260200190815260200160002054905082811015610e3f576040517f08c379a0000000000000000000000000000000000000000000000000000000008152600401610e36906125a2565b60405180910390fd5b610e53610e4a611005565b8585840361100d565b600191505092915050565b6000610e72610e6b611005565b84846111d8565b6001905092915050565b600060fb54905090565b6000603460008473ffffffffffffffffffffffffffffffffffffffff1673ffffffffffffffffffffffffffffffffffffffff16815260200190815260200160002060008373ffffffffffffffffffffffffffffffffffffffff1673ffffffffffffffffffffffffffffffffffffffff16815260200190815260200160002054905092915050565b610f15611005565b73ffffffffffffffffffffffffffffffffffffffff16610f33610cb7565b73ffffffffffffffffffffffffffffffffffffffff1614610f89576040517f08c379a0000000000000000000000000000000000000000000000000000000008152600401610f8090612502565b60405180910390fd5b600073ffffffffffffffffffffffffffffffffffffffff168173ffffffffffffffffffffffffffffffffffffffff161415610ff9576040517f08c379a0000000000000000000000000000000000000000000000000000000008152600401610ff090612402565b60405180910390fd5b61100281611703565b50565b600033905090565b600073ffffffffffffffffffffffffffffffffffffffff168373ffffffffffffffffffffffffffffffffffffffff16141561107d576040517f08c379a000000000000000000000000000000000000000000000000000000000815260040161107490612562565b60405180910390fd5b600073ffffffffffffffffffffffffffffffffffffffff168273ffffffffffffffffffffffffffffffffffffffff1614156110ed576040517f08c379a00000000000000000000000000000000000000000000000000000000081526004016110e490612422565b60405180910390fd5b80603460008573ffffffffffffffffffffffffffffffffffffffff1673ffffffffffffffffffffffffffffffffffffffff16815260200190815260200160002060008473ffffffffffffffffffffffffffffffffffffffff1673ffffffffffffffffffffffffffffffffffffffff168152602001908152602001600020819055508173ffffffffffffffffffffffffffffffffffffffff168373ffffffffffffffffffffffffffffffffffffffff167f8c5be1e5ebec7d5bd14f71427d1e84f3dd0314c0f7b2291e5b200ac8c7c3b925836040516111cb91906125e2565b60405180910390a3505050565b600073ffffffffffffffffffffffffffffffffffffffff168373ffffffffffffffffffffffffffffffffffffffff161415611248576040517f08c379a000000000000000000000000000000000000000000000000000000000815260040161123f90612542565b60405180910390fd5b600073ffffffffffffffffffffffffffffffffffffffff168273ffffffffffffffffffffffffffffffffffffffff1614156112b8576040517f08c379a00000000000000000000000000000000000000000000000000000000081526004016112af906123c2565b60405180910390fd5b6112c3838383611a01565b6000603360008573ffffffffffffffffffffffffffffffffffffffff1673ffffffffffffffffffffffffffffffffffffffff1681526020019081526020016000205490508181101561134a576040517f08c379a000000000000000000000000000000000000000000000000000000000815260040161134190612462565b60405180910390fd5b818103603360008673ffffffffffffffffffffffffffffffffffffffff1673ffffffffffffffffffffffffffffffffffffffff1681526020019081526020016000208190555081603360008573ffffffffffffffffffffffffffffffffffffffff1673ffffffffffffffffffffffffffffffffffffffff16815260200190815260200160002060008282546113df91906126a0565b925050819055508273ffffffffffffffffffffffffffffffffffffffff168473ffffffffffffffffffffffffffffffffffffffff167fddf252ad1be2c89b69c2b068fc378daa952ba7f163c4a11628f55a4df523b3ef8460405161144391906125e2565b60405180910390a3611456848484611a06565b50505050565b600061148a7f360894a13ba1a3210667c828492db98dca3e2076cc3735a920a3ca505d382bbc60001b611a0b565b60000160009054906101000a900473ffffffffffffffffffffffffffffffffffffffff16905090565b6114bb611005565b73ffffffffffffffffffffffffffffffffffffffff166114d9610cb7565b73ffffffffffffffffffffffffffffffffffffffff161461152f576040517f08c379a000000000000000000000000000000000000000000000000000000000815260040161152690612502565b60405180910390fd5b50565b600061153c61145c565b905061154784611a15565b6000835111806115545750815b15611565576115638484611ace565b505b60006115937f4910fdfa16fed3260ed0e7147f7cc6da11a60208b5b9406d12a635614ffd914360001b611bb2565b90508060000160009054906101000a900460ff166116fc5760018160000160006101000a81548160ff02191690831515021790555061165f85836040516024016115dd919061236a565b6040516020818303038152906040527f3659cfe6000000000000000000000000000000000000000000000000000000007bffffffffffffffffffffffffffffffffffffffffffffffffffffffff19166020820180517bffffffffffffffffffffffffffffffffffffffffffffffffffffffff8381831617835250505050611ace565b5060008160000160006101000a81548160ff02191690831515021790555061168561145c565b73ffffffffffffffffffffffffffffffffffffffff168273ffffffffffffffffffffffffffffffffffffffff16146116f2576040517f08c379a00000000000000000000000000000000000000000000000000000000081526004016116e9906123e2565b60405180910390fd5b6116fb85611bbc565b5b5050505050565b600060c960009054906101000a900473ffffffffffffffffffffffffffffffffffffffff1690508160c960006101000a81548173ffffffffffffffffffffffffffffffffffffffff021916908373ffffffffffffffffffffffffffffffffffffffff1602179055508173ffffffffffffffffffffffffffffffffffffffff168173ffffffffffffffffffffffffffffffffffffffff167f8be0079c531659141344cd1fd0a4f28419497f9722a3daafe3b4186f6b6457e060405160405180910390a35050565b60006117d430611c0b565b15905090565b600060019054906101000a900460ff16611829576040517f08c379a000000000000000000000000000000000000000000000000000000000815260040161182090612582565b60405180910390fd5b611831611c1e565b61183b8282611c6f565b5050565b600060019054906101000a900460ff1661188e576040517f08c379a000000000000000000000000000000000000000000000000000000000815260040161188590612582565b60405180910390fd5b611896611c1e565b61189e611cf0565b565b600073ffffffffffffffffffffffffffffffffffffffff168273ffffffffffffffffffffffffffffffffffffffff161415611910576040517f08c379a0000000000000000000000000000000000000000000000000000000008152600401611907906125c2565b60405180910390fd5b61191c60008383611a01565b806035600082825461192e91906126a0565b9250508190555080603360008473ffffffffffffffffffffffffffffffffffffffff1673ffffffffffffffffffffffffffffffffffffffff168152602001908152602001600020600082825461198491906126a0565b925050819055508173ffffffffffffffffffffffffffffffffffffffff16600073ffffffffffffffffffffffffffffffffffffffff167fddf252ad1be2c89b69c2b068fc378daa952ba7f163c4a11628f55a4df523b3ef836040516119e991906125e2565b60405180910390a36119fd60008383611a06565b5050565b505050565b505050565b6000819050919050565b611a1e81611c0b565b611a5d576040517f08c379a0000000000000000000000000000000000000000000000000000000008152600401611a54906124c2565b60405180910390fd5b80611a8a7f360894a13ba1a3210667c828492db98dca3e2076cc3735a920a3ca505d382bbc60001b611a0b565b60000160006101000a81548173ffffffffffffffffffffffffffffffffffffffff021916908373ffffffffffffffffffffffffffffffffffffffff16021790555050565b6060611ad983611c0b565b611b18576040517f08c379a0000000000000000000000000000000000000000000000000000000008152600401611b0f90612522565b60405180910390fd5b6000808473ffffffffffffffffffffffffffffffffffffffff1684604051611b409190612353565b600060405180830381855af49150503d8060008114611b7b576040519150601f19603f3d011682016040523d82523d6000602084013e611b80565b606091505b5091509150611ba88282604051806060016040528060278152602001612f8860279139611d51565b9250505092915050565b6000819050919050565b611bc581611a15565b8073ffffffffffffffffffffffffffffffffffffffff167fbc7cd75a20ee27fd9adebab32041f755214dbc6bffa90cc0225b39da2e5c2d3b60405160405180910390a250565b600080823b905060008111915050919050565b600060019054906101000a900460ff16611c6d576040517f08c379a0000000000000000000000000000000000000000000000000000000008152600401611c6490612582565b60405180910390fd5b565b600060019054906101000a900460ff16611cbe576040517f08c379a0000000000000000000000000000000000000000000000000000000008152600401611cb590612582565b60405180910390fd5b8160369080519060200190611cd4929190611db8565b508060379080519060200190611ceb929190611db8565b505050565b600060019054906101000a900460ff16611d3f576040517f08c379a0000000000000000000000000000000000000000000000000000000008152600401611d3690612582565b60405180910390fd5b611d4f611d4a611005565b611703565b565b60608315611d6157829050611db1565b600083511115611d745782518084602001fd5b816040517f08c379a0000000000000000000000000000000000000000000000000000000008152600401611da891906123a0565b60405180910390fd5b9392505050565b828054611dc490612958565b90600052602060002090601f016020900481019282611de65760008555611e2d565b82601f10611dff57805160ff1916838001178555611e2d565b82800160010185558215611e2d579182015b82811115611e2c578251825591602001919060010190611e11565b5b509050611e3a9190611e3e565b5090565b5b80821115611e57576000816000905550600101611e3f565b5090565b6000611e6e611e698461263d565b612618565b905082815260208101848484011115611e8657600080fd5b611e91848285612916565b509392505050565b600081359050611ea881612f59565b92915050565b600082601f830112611ebf57600080fd5b8135611ecf848260208601611e5b565b91505092915050565b600081359050611ee781612f70565b92915050565b600060208284031215611eff57600080fd5b6000611f0d84828501611e99565b91505092915050565b60008060408385031215611f2957600080fd5b6000611f3785828601611e99565b9250506020611f4885828601611e99565b9150509250929050565b600080600060608486031215611f6757600080fd5b6000611f7586828701611e99565b9350506020611f8686828701611e99565b9250506040611f9786828701611ed8565b9150509250925092565b60008060408385031215611fb457600080fd5b6000611fc285828601611e99565b925050602083013567ffffffffffffffff811115611fdf57600080fd5b611feb85828601611eae565b9150509250929050565b6000806040838503121561200857600080fd5b600061201685828601611e99565b925050602061202785828601611ed8565b9150509250929050565b60006020828403121561204357600080fd5b600061205184828501611ed8565b91505092915050565b612063816128c1565b82525050565b612072816128d3565b82525050565b60006120838261266e565b61208d8185612684565b935061209d818560208601612925565b80840191505092915050565b60006120b482612679565b6120be818561268f565b93506120ce818560208601612925565b6120d781612a48565b840191505092915050565b60006120ef60238361268f565b91506120fa82612a66565b604082019050919050565b6000612112602f8361268f565b915061211d82612ab5565b604082019050919050565b600061213560268361268f565b915061214082612b04565b604082019050919050565b600061215860228361268f565b915061216382612b53565b604082019050919050565b600061217b602c8361268f565b915061218682612ba2565b604082019050919050565b600061219e60268361268f565b91506121a982612bf1565b604082019050919050565b60006121c1602c8361268f565b91506121cc82612c40565b604082019050919050565b60006121e4602e8361268f565b91506121ef82612c8f565b604082019050919050565b6000612207602d8361268f565b915061221282612cde565b604082019050919050565b600061222a60288361268f565b915061223582612d2d565b604082019050919050565b600061224d60208361268f565b915061225882612d7c565b602082019050919050565b600061227060268361268f565b915061227b82612da5565b604082019050919050565b600061229360258361268f565b915061229e82612df4565b604082019050919050565b60006122b660248361268f565b91506122c182612e43565b604082019050919050565b60006122d9602b8361268f565b91506122e482612e92565b604082019050919050565b60006122fc60258361268f565b915061230782612ee1565b604082019050919050565b600061231f601f8361268f565b915061232a82612f30565b602082019050919050565b61233e816128ff565b82525050565b61234d81612909565b82525050565b600061235f8284612078565b915081905092915050565b600060208201905061237f600083018461205a565b92915050565b600060208201905061239a6000830184612069565b92915050565b600060208201905081810360008301526123ba81846120a9565b905092915050565b600060208201905081810360008301526123db816120e2565b9050919050565b600060208201905081810360008301526123fb81612105565b9050919050565b6000602082019050818103600083015261241b81612128565b9050919050565b6000602082019050818103600083015261243b8161214b565b9050919050565b6000602082019050818103600083015261245b8161216e565b9050919050565b6000602082019050818103600083015261247b81612191565b9050919050565b6000602082019050818103600083015261249b816121b4565b9050919050565b600060208201905081810360008301526124bb816121d7565b9050919050565b600060208201905081810360008301526124db816121fa565b9050919050565b600060208201905081810360008301526124fb8161221d565b9050919050565b6000602082019050818103600083015261251b81612240565b9050919050565b6000602082019050818103600083015261253b81612263565b9050919050565b6000602082019050818103600083015261255b81612286565b9050919050565b6000602082019050818103600083015261257b816122a9565b9050919050565b6000602082019050818103600083015261259b816122cc565b9050919050565b600060208201905081810360008301526125bb816122ef565b9050919050565b600060208201905081810360008301526125db81612312565b9050919050565b60006020820190506125f76000830184612335565b92915050565b60006020820190506126126000830184612344565b92915050565b6000612622612633565b905061262e828261298a565b919050565b6000604051905090565b600067ffffffffffffffff82111561265857612657612a19565b5b61266182612a48565b9050602081019050919050565b600081519050919050565b600081519050919050565b600081905092915050565b600082825260208201905092915050565b60006126ab826128ff565b91506126b6836128ff565b9250827fffffffffffffffffffffffffffffffffffffffffffffffffffffffffffffffff038211156126eb576126ea6129bb565b5b828201905092915050565b6000808291508390505b60018511156127405780860481111561271c5761271b6129bb565b5b600185161561272b5780820291505b808102905061273985612a59565b9450612700565b94509492505050565b6000612754826128ff565b915061275f83612909565b925061278c7fffffffffffffffffffffffffffffffffffffffffffffffffffffffffffffffff8484612794565b905092915050565b6000826127a45760019050612860565b816127b25760009050612860565b81600181146127c857600281146127d257612801565b6001915050612860565b60ff8411156127e4576127e36129bb565b5b8360020a9150848211156127fb576127fa6129bb565b5b50612860565b5060208310610133831016604e8410600b84101617156128365782820a905083811115612831576128306129bb565b5b612860565b61284384848460016126f6565b9250905081840481111561285a576128596129bb565b5b81810290505b9392505050565b6000612872826128ff565b915061287d836128ff565b9250817fffffffffffffffffffffffffffffffffffffffffffffffffffffffffffffffff04831182151516156128b6576128b56129bb565b5b828202905092915050565b60006128cc826128df565b9050919050565b60008115159050919050565b600073ffffffffffffffffffffffffffffffffffffffff82169050919050565b6000819050919050565b600060ff82169050919050565b82818337600083830152505050565b60005b83811015612943578082015181840152602081019050612928565b83811115612952576000848401525b50505050565b6000600282049050600182168061297057607f821691505b60208210811415612984576129836129ea565b5b50919050565b61299382612a48565b810181811067ffffffffffffffff821117156129b2576129b1612a19565b5b80604052505050565b7f4e487b7100000000000000000000000000000000000000000000000000000000600052601160045260246000fd5b7f4e487b7100000000000000000000000000000000000000000000000000000000600052602260045260246000fd5b7f4e487b7100000000000000000000000000000000000000000000000000000000600052604160045260246000fd5b6000601f19601f8301169050919050565b60008160011c9050919050565b7f45524332303a207472616e7366657220746f20746865207a65726f206164647260008201527f6573730000000000000000000000000000000000000000000000000000000000602082015250565b7f45524331393637557067726164653a207570677261646520627265616b73206660008201527f7572746865722075706772616465730000000000000000000000000000000000602082015250565b7f4f776e61626c653a206e6577206f776e657220697320746865207a65726f206160008201527f6464726573730000000000000000000000000000000000000000000000000000602082015250565b7f45524332303a20617070726f766520746f20746865207a65726f20616464726560008201527f7373000000000000000000000000000000000000000000000000000000000000602082015250565b7f46756e6374696f6e206d7573742062652063616c6c6564207468726f7567682060008201527f64656c656761746563616c6c0000000000000000000000000000000000000000602082015250565b7f45524332303a207472616e7366657220616d6f756e742065786365656473206260008201527f616c616e63650000000000000000000000000000000000000000000000000000602082015250565b7f46756e6374696f6e206d7573742062652063616c6c6564207468726f7567682060008201527f6163746976652070726f78790000000000000000000000000000000000000000602082015250565b7f496e697469616c697a61626c653a20636f6e747261637420697320616c72656160008201527f647920696e697469616c697a6564000000000000000000000000000000000000602082015250565b7f455243313936373a206e657720696d706c656d656e746174696f6e206973206e60008201527f6f74206120636f6e747261637400000000000000000000000000000000000000602082015250565b7f45524332303a207472616e7366657220616d6f756e742065786365656473206160008201527f6c6c6f77616e6365000000000000000000000000000000000000000000000000602082015250565b7f4f776e61626c653a2063616c6c6572206973206e6f7420746865206f776e6572600082015250565b7f416464726573733a2064656c65676174652063616c6c20746f206e6f6e2d636f60008201527f6e74726163740000000000000000000000000000000000000000000000000000602082015250565b7f45524332303a207472616e736665722066726f6d20746865207a65726f20616460008201527f6472657373000000000000000000000000000000000000000000000000000000602082015250565b7f45524332303a20617070726f76652066726f6d20746865207a65726f2061646460008201527f7265737300000000000000000000000000000000000000000000000000000000602082015250565b7f496e697469616c697a61626c653a20636f6e7472616374206973206e6f74206960008201527f6e697469616c697a696e67000000000000000000000000000000000000000000602082015250565b7f45524332303a2064656372656173656420616c6c6f77616e63652062656c6f7760008201527f207a65726f000000000000000000000000000000000000000000000000000000602082015250565b7f45524332303a206d696e7420746f20746865207a65726f206164647265737300600082015250565b612f62816128c1565b8114612f6d57600080fd5b50565b612f79816128ff565b8114612f8457600080fd5b5056fe416464726573733a206c6f772d6c6576656c2064656c65676174652063616c6c206661696c6564a2646970667358221220aa3b4e0d33c7d08a22987137e6320056a73d66525ee74779584d63bcba245ac364736f6c63430008040033",
  "immutableReferences": {
    "641": [
      {
        "length": 32,
        "start": 1662
      },
      {
        "length": 32,
        "start": 1805
      },
      {
        "length": 32,
        "start": 2265
      },
      {
        "length": 32,
        "start": 2408
      }
    ]
  },
  "source": "// SPDX-License-Identifier: MIT\npragma solidity ^0.8.2;\n\nimport \"@openzeppelin/contracts-upgradeable/proxy/utils/Initializable.sol\";\nimport \"@openzeppelin/contracts-upgradeable/token/ERC20/ERC20Upgradeable.sol\";\nimport \"@openzeppelin/contracts-upgradeable/proxy/utils/UUPSUpgradeable.sol\";\nimport \"@openzeppelin/contracts-upgradeable/access/OwnableUpgradeable.sol\";\n\ncontract Mars is Initializable,ERC20Upgradeable,UUPSUpgradeable,OwnableUpgradeable  {\n    function initialize() public initializer {\n         __ERC20_init(\"Mars\", \"MARS\");\n        __Ownable_init();\n        _mint(msg.sender, 10000000 * 10 ** decimals());\n        \n    }\n\n    function _authorizeUpgrade(address newImplementation) internal override onlyOwner{}\n}\n\ncontract MarsV2 is Mars{\n    uint private  fee;\n    function setFee(uint val) external {\n        fee = val;\n    }\n    function getFee() external  view  returns(uint){\n        return fee;\n    }\n    function version() public virtual  pure  returns(string memory){\n        return \"v2!\";\n    }\n}\n\ncontract MarsV3 is MarsV2{\n    function  version() public virtual override pure  returns(string memory){\n        return \"v3!\";\n    }\n}\n\ncontract MarsV4 is MarsV3{\n    function  version() public virtual override pure  returns(string memory){\n        return \"v4!\";\n    }\n}\n\ncontract MarsV5 is MarsV4{\n    function  version() public virtual override pure  returns(string memory){\n        return \"v5!\";\n    }\n}",
  "sourcePath": "/home/jmint/uups_truffle/contracts/Mars.sol",
  "compiler": {
    "name": "solc",
    "version": "0.8.4+commit.c7e474f2.Emscripten.clang"
  },
  "schemaVersion": "3.4.3",
  "updatedAt": "2022-01-28T09:12:28.857Z",
  "devdoc": {
    "kind": "dev",
    "methods": {
      "allowance(address,address)": {
        "details": "See {IERC20-allowance}."
      },
      "approve(address,uint256)": {
        "details": "See {IERC20-approve}. Requirements: - `spender` cannot be the zero address."
      },
      "balanceOf(address)": {
        "details": "See {IERC20-balanceOf}."
      },
      "decimals()": {
        "details": "Returns the number of decimals used to get its user representation. For example, if `decimals` equals `2`, a balance of `505` tokens should be displayed to a user as `5.05` (`505 / 10 ** 2`). Tokens usually opt for a value of 18, imitating the relationship between Ether and Wei. This is the value {ERC20} uses, unless this function is overridden; NOTE: This information is only used for _display_ purposes: it in no way affects any of the arithmetic of the contract, including {IERC20-balanceOf} and {IERC20-transfer}."
      },
      "decreaseAllowance(address,uint256)": {
        "details": "Atomically decreases the allowance granted to `spender` by the caller. This is an alternative to {approve} that can be used as a mitigation for problems described in {IERC20-approve}. Emits an {Approval} event indicating the updated allowance. Requirements: - `spender` cannot be the zero address. - `spender` must have allowance for the caller of at least `subtractedValue`."
      },
      "increaseAllowance(address,uint256)": {
        "details": "Atomically increases the allowance granted to `spender` by the caller. This is an alternative to {approve} that can be used as a mitigation for problems described in {IERC20-approve}. Emits an {Approval} event indicating the updated allowance. Requirements: - `spender` cannot be the zero address."
      },
      "name()": {
        "details": "Returns the name of the token."
      },
      "owner()": {
        "details": "Returns the address of the current owner."
      },
      "renounceOwnership()": {
        "details": "Leaves the contract without owner. It will not be possible to call `onlyOwner` functions anymore. Can only be called by the current owner. NOTE: Renouncing ownership will leave the contract without an owner, thereby removing any functionality that is only available to the owner."
      },
      "symbol()": {
        "details": "Returns the symbol of the token, usually a shorter version of the name."
      },
      "totalSupply()": {
        "details": "See {IERC20-totalSupply}."
      },
      "transfer(address,uint256)": {
        "details": "See {IERC20-transfer}. Requirements: - `recipient` cannot be the zero address. - the caller must have a balance of at least `amount`."
      },
      "transferFrom(address,address,uint256)": {
        "details": "See {IERC20-transferFrom}. Emits an {Approval} event indicating the updated allowance. This is not required by the EIP. See the note at the beginning of {ERC20}. Requirements: - `sender` and `recipient` cannot be the zero address. - `sender` must have a balance of at least `amount`. - the caller must have allowance for ``sender``'s tokens of at least `amount`."
      },
      "transferOwnership(address)": {
        "details": "Transfers ownership of the contract to a new account (`newOwner`). Can only be called by the current owner."
      },
      "upgradeTo(address)": {
        "details": "Upgrade the implementation of the proxy to `newImplementation`. Calls {_authorizeUpgrade}. Emits an {Upgraded} event."
      },
      "upgradeToAndCall(address,bytes)": {
        "details": "Upgrade the implementation of the proxy to `newImplementation`, and subsequently execute the function call encoded in `data`. Calls {_authorizeUpgrade}. Emits an {Upgraded} event."
      }
    },
    "version": 1
  },
  "userdoc": {
    "kind": "user",
    "methods": {},
    "version": 1
  }
}