{
  "contractName": "Mars",
  "abi": [
    {
      "anonymous": false,
      "inputs": [
        {
          "indexed": false,
          "internalType": "address",
          "name": "previousAdmin",
          "type": "address"
        },
        {
          "indexed": false,
          "internalType": "address",
          "name": "newAdmin",
          "type": "address"
        }
      ],
      "name": "AdminChanged",
      "type": "event"
    },
    {
      "anonymous": false,
      "inputs": [
        {
          "indexed": true,
          "internalType": "address",
          "name": "owner",
          "type": "address"
        },
        {
          "indexed": true,
          "internalType": "address",
          "name": "spender",
          "type": "address"
        },
        {
          "indexed": false,
          "internalType": "uint256",
          "name": "value",
          "type": "uint256"
        }
      ],
      "name": "Approval",
      "type": "event"
    },
    {
      "anonymous": false,
      "inputs": [
        {
          "indexed": true,
          "internalType": "address",
          "name": "beacon",
          "type": "address"
        }
      ],
      "name": "BeaconUpgraded",
      "type": "event"
    },
    {
      "anonymous": false,
      "inputs": [
        {
          "indexed": true,
          "internalType": "address",
          "name": "previousOwner",
          "type": "address"
        },
        {
          "indexed": true,
          "internalType": "address",
          "name": "newOwner",
          "type": "address"
        }
      ],
      "name": "OwnershipTransferred",
      "type": "event"
    },
    {
      "anonymous": false,
      "inputs": [
        {
          "indexed": true,
          "internalType": "address",
          "name": "from",
          "type": "address"
        },
        {
          "indexed": true,
          "internalType": "address",
          "name": "to",
          "type": "address"
        },
        {
          "indexed": false,
          "internalType": "uint256",
          "name": "value",
          "type": "uint256"
        }
      ],
      "name": "Transfer",
      "type": "event"
    },
    {
      "anonymous": false,
      "inputs": [
        {
          "indexed": true,
          "internalType": "address",
          "name": "implementation",
          "type": "address"
        }
      ],
      "name": "Upgraded",
      "type": "event"
    },
    {
      "inputs": [
        {
          "internalType": "address",
          "name": "owner",
          "type": "address"
        },
        {
          "internalType": "address",
          "name": "spender",
          "type": "address"
        }
      ],
      "name": "allowance",
      "outputs": [
        {
          "internalType": "uint256",
          "name": "",
          "type": "uint256"
        }
      ],
      "stateMutability": "view",
      "type": "function"
    },
    {
      "inputs": [
        {
          "internalType": "address",
          "name": "spender",
          "type": "address"
        },
        {
          "internalType": "uint256",
          "name": "amount",
          "type": "uint256"
        }
      ],
      "name": "approve",
      "outputs": [
        {
          "internalType": "bool",
          "name": "",
          "type": "bool"
        }
      ],
      "stateMutability": "nonpayable",
      "type": "function"
    },
    {
      "inputs": [
        {
          "internalType": "address",
          "name": "account",
          "type": "address"
        }
      ],
      "name": "balanceOf",
      "outputs": [
        {
          "internalType": "uint256",
          "name": "",
          "type": "uint256"
        }
      ],
      "stateMutability": "view",
      "type": "function"
    },
    {
      "inputs": [],
      "name": "decimals",
      "outputs": [
        {
          "internalType": "uint8",
          "name": "",
          "type": "uint8"
        }
      ],
      "stateMutability": "view",
      "type": "function"
    },
    {
      "inputs": [
        {
          "internalType": "address",
          "name": "spender",
          "type": "address"
        },
        {
          "internalType": "uint256",
          "name": "subtractedValue",
          "type": "uint256"
        }
      ],
      "name": "decreaseAllowance",
      "outputs": [
        {
          "internalType": "bool",
          "name": "",
          "type": "bool"
        }
      ],
      "stateMutability": "nonpayable",
      "type": "function"
    },
    {
      "inputs": [
        {
          "internalType": "address",
          "name": "spender",
          "type": "address"
        },
        {
          "internalType": "uint256",
          "name": "addedValue",
          "type": "uint256"
        }
      ],
      "name": "increaseAllowance",
      "outputs": [
        {
          "internalType": "bool",
          "name": "",
          "type": "bool"
        }
      ],
      "stateMutability": "nonpayable",
      "type": "function"
    },
    {
      "inputs": [],
      "name": "name",
      "outputs": [
        {
          "internalType": "string",
          "name": "",
          "type": "string"
        }
      ],
      "stateMutability": "view",
      "type": "function"
    },
    {
      "inputs": [],
      "name": "owner",
      "outputs": [
        {
          "internalType": "address",
          "name": "",
          "type": "address"
        }
      ],
      "stateMutability": "view",
      "type": "function"
    },
    {
      "inputs": [],
      "name": "renounceOwnership",
      "outputs": [],
      "stateMutability": "nonpayable",
      "type": "function"
    },
    {
      "inputs": [],
      "name": "symbol",
      "outputs": [
        {
          "internalType": "string",
          "name": "",
          "type": "string"
        }
      ],
      "stateMutability": "view",
      "type": "function"
    },
    {
      "inputs": [],
      "name": "totalSupply",
      "outputs": [
        {
          "internalType": "uint256",
          "name": "",
          "type": "uint256"
        }
      ],
      "stateMutability": "view",
      "type": "function"
    },
    {
      "inputs": [
        {
          "internalType": "address",
          "name": "recipient",
          "type": "address"
        },
        {
          "internalType": "uint256",
          "name": "amount",
          "type": "uint256"
        }
      ],
      "name": "transfer",
      "outputs": [
        {
          "internalType": "bool",
          "name": "",
          "type": "bool"
        }
      ],
      "stateMutability": "nonpayable",
      "type": "function"
    },
    {
      "inputs": [
        {
          "internalType": "address",
          "name": "sender",
          "type": "address"
        },
        {
          "internalType": "address",
          "name": "recipient",
          "type": "address"
        },
        {
          "internalType": "uint256",
          "name": "amount",
          "type": "uint256"
        }
      ],
      "name": "transferFrom",
      "outputs": [
        {
          "internalType": "bool",
          "name": "",
          "type": "bool"
        }
      ],
      "stateMutability": "nonpayable",
      "type": "function"
    },
    {
      "inputs": [
        {
          "internalType": "address",
          "name": "newOwner",
          "type": "address"
        }
      ],
      "name": "transferOwnership",
      "outputs": [],
      "stateMutability": "nonpayable",
      "type": "function"
    },
    {
      "inputs": [
        {
          "internalType": "address",
          "name": "newImplementation",
          "type": "address"
        }
      ],
      "name": "upgradeTo",
      "outputs": [],
      "stateMutability": "nonpayable",
      "type": "function"
    },
    {
      "inputs": [
        {
          "internalType": "address",
          "name": "newImplementation",
          "type": "address"
        },
        {
          "internalType": "bytes",
          "name": "data",
          "type": "bytes"
        }
      ],
      "name": "upgradeToAndCall",
      "outputs": [],
      "stateMutability": "payable",
      "type": "function"
    },
    {
      "inputs": [],
      "name": "initialize",
      "outputs": [],
      "stateMutability": "nonpayable",
      "type": "function"
    }
  ],
  "bytecode": "0x60a06040523073ffffffffffffffffffffffffffffffffffffffff1660809073ffffffffffffffffffffffffffffffffffffffff1660601b81525034801561004657600080fd5b5060805160601c612eca61007a600039600081816105de0152818161066d0152818161083901526108c80152612eca6000f3fe6080604052600436106100fe5760003560e01c806370a082311161009557806395d89b411161006457806395d89b4114610316578063a457c2d714610341578063a9059cbb1461037e578063dd62ed3e146103bb578063f2fde38b146103f8576100fe565b806370a0823114610280578063715018a6146102bd5780638129fc1c146102d45780638da5cb5b146102eb576100fe565b8063313ce567116100d1578063313ce567146101d35780633659cfe6146101fe57806339509351146102275780634f1ef28614610264576100fe565b806306fdde0314610103578063095ea7b31461012e57806318160ddd1461016b57806323b872dd14610196575b600080fd5b34801561010f57600080fd5b50610118610421565b6040516101259190612286565b60405180910390f35b34801561013a57600080fd5b5061015560048036038101906101509190611f04565b6104b3565b604051610162919061226b565b60405180910390f35b34801561017757600080fd5b506101806104d1565b60405161018d91906124c8565b60405180910390f35b3480156101a257600080fd5b506101bd60048036038101906101b89190611e61565b6104db565b6040516101ca919061226b565b60405180910390f35b3480156101df57600080fd5b506101e86105d3565b6040516101f591906124e3565b60405180910390f35b34801561020a57600080fd5b5061022560048036038101906102209190611dfc565b6105dc565b005b34801561023357600080fd5b5061024e60048036038101906102499190611f04565b61078b565b60405161025b919061226b565b60405180910390f35b61027e60048036038101906102799190611eb0565b610837565b005b34801561028c57600080fd5b506102a760048036038101906102a29190611dfc565b610974565b6040516102b491906124c8565b60405180910390f35b3480156102c957600080fd5b506102d26109bd565b005b3480156102e057600080fd5b506102e9610a45565b005b3480156102f757600080fd5b50610300610bd0565b60405161030d9190612250565b60405180910390f35b34801561032257600080fd5b5061032b610bfa565b6040516103389190612286565b60405180910390f35b34801561034d57600080fd5b5061036860048036038101906103639190611f04565b610c8c565b604051610375919061226b565b60405180910390f35b34801561038a57600080fd5b506103a560048036038101906103a09190611f04565b610d77565b6040516103b2919061226b565b60405180910390f35b3480156103c757600080fd5b506103e260048036038101906103dd9190611e25565b610d95565b6040516103ef91906124c8565b60405180910390f35b34801561040457600080fd5b5061041f600480360381019061041a9190611dfc565b610e1c565b005b6060603680546104309061283e565b80601f016020809104026020016040519081016040528092919081815260200182805461045c9061283e565b80156104a95780601f1061047e576101008083540402835291602001916104a9565b820191906000526020600020905b81548152906001019060200180831161048c57829003601f168201915b5050505050905090565b60006104c76104c0610f14565b8484610f1c565b6001905092915050565b6000603554905090565b60006104e88484846110e7565b6000603460008673ffffffffffffffffffffffffffffffffffffffff1673ffffffffffffffffffffffffffffffffffffffff1681526020019081526020016000206000610533610f14565b73ffffffffffffffffffffffffffffffffffffffff1673ffffffffffffffffffffffffffffffffffffffff168152602001908152602001600020549050828110156105b3576040517f08c379a00000000000000000000000000000000000000000000000000000000081526004016105aa906123c8565b60405180910390fd5b6105c7856105bf610f14565b858403610f1c565b60019150509392505050565b60006012905090565b7f000000000000000000000000000000000000000000000000000000000000000073ffffffffffffffffffffffffffffffffffffffff163073ffffffffffffffffffffffffffffffffffffffff16141561066b576040517f08c379a000000000000000000000000000000000000000000000000000000000815260040161066290612328565b60405180910390fd5b7f000000000000000000000000000000000000000000000000000000000000000073ffffffffffffffffffffffffffffffffffffffff166106aa61136b565b73ffffffffffffffffffffffffffffffffffffffff1614610700576040517f08c379a00000000000000000000000000000000000000000000000000000000081526004016106f790612368565b60405180910390fd5b610709816113c2565b61078881600067ffffffffffffffff81111561074e577f4e487b7100000000000000000000000000000000000000000000000000000000600052604160045260246000fd5b6040519080825280601f01601f1916602001820160405280156107805781602001600182028036833780820191505090505b506000611441565b50565b600061082d610798610f14565b8484603460006107a6610f14565b73ffffffffffffffffffffffffffffffffffffffff1673ffffffffffffffffffffffffffffffffffffffff16815260200190815260200160002060008873ffffffffffffffffffffffffffffffffffffffff1673ffffffffffffffffffffffffffffffffffffffff168152602001908152602001600020546108289190612586565b610f1c565b6001905092915050565b7f000000000000000000000000000000000000000000000000000000000000000073ffffffffffffffffffffffffffffffffffffffff163073ffffffffffffffffffffffffffffffffffffffff1614156108c6576040517f08c379a00000000000000000000000000000000000000000000000000000000081526004016108bd90612328565b60405180910390fd5b7f000000000000000000000000000000000000000000000000000000000000000073ffffffffffffffffffffffffffffffffffffffff1661090561136b565b73ffffffffffffffffffffffffffffffffffffffff161461095b576040517f08c379a000000000000000000000000000000000000000000000000000000000815260040161095290612368565b60405180910390fd5b610964826113c2565b61097082826001611441565b5050565b6000603360008373ffffffffffffffffffffffffffffffffffffffff1673ffffffffffffffffffffffffffffffffffffffff168152602001908152602001600020549050919050565b6109c5610f14565b73ffffffffffffffffffffffffffffffffffffffff166109e3610bd0565b73ffffffffffffffffffffffffffffffffffffffff1614610a39576040517f08c379a0000000000000000000000000000000000000000000000000000000008152600401610a30906123e8565b60405180910390fd5b610a436000611612565b565b600060019054906101000a900460ff16610a6d5760008054906101000a900460ff1615610a76565b610a756116d8565b5b610ab5576040517f08c379a0000000000000000000000000000000000000000000000000000000008152600401610aac90612388565b60405180910390fd5b60008060019054906101000a900460ff161590508015610b05576001600060016101000a81548160ff02191690831515021790555060016000806101000a81548160ff0219169083151502179055505b610b796040518060400160405280600481526020017f4d617273000000000000000000000000000000000000000000000000000000008152506040518060400160405280600481526020017f4d415253000000000000000000000000000000000000000000000000000000008152506116e9565b610b8161174e565b610bac33610b8d6105d3565b600a610b99919061262f565b62989680610ba7919061274d565b6117af565b8015610bcd5760008060016101000a81548160ff0219169083151502179055505b50565b600060c960009054906101000a900473ffffffffffffffffffffffffffffffffffffffff16905090565b606060378054610c099061283e565b80601f0160208091040260200160405190810160405280929190818152602001828054610c359061283e565b8015610c825780601f10610c5757610100808354040283529160200191610c82565b820191906000526020600020905b815481529060010190602001808311610c6557829003601f168201915b5050505050905090565b60008060346000610c9b610f14565b73ffffffffffffffffffffffffffffffffffffffff1673ffffffffffffffffffffffffffffffffffffffff16815260200190815260200160002060008573ffffffffffffffffffffffffffffffffffffffff1673ffffffffffffffffffffffffffffffffffffffff16815260200190815260200160002054905082811015610d58576040517f08c379a0000000000000000000000000000000000000000000000000000000008152600401610d4f90612488565b60405180910390fd5b610d6c610d63610f14565b85858403610f1c565b600191505092915050565b6000610d8b610d84610f14565b84846110e7565b6001905092915050565b6000603460008473ffffffffffffffffffffffffffffffffffffffff1673ffffffffffffffffffffffffffffffffffffffff16815260200190815260200160002060008373ffffffffffffffffffffffffffffffffffffffff1673ffffffffffffffffffffffffffffffffffffffff16815260200190815260200160002054905092915050565b610e24610f14565b73ffffffffffffffffffffffffffffffffffffffff16610e42610bd0565b73ffffffffffffffffffffffffffffffffffffffff1614610e98576040517f08c379a0000000000000000000000000000000000000000000000000000000008152600401610e8f906123e8565b60405180910390fd5b600073ffffffffffffffffffffffffffffffffffffffff168173ffffffffffffffffffffffffffffffffffffffff161415610f08576040517f08c379a0000000000000000000000000000000000000000000000000000000008152600401610eff906122e8565b60405180910390fd5b610f1181611612565b50565b600033905090565b600073ffffffffffffffffffffffffffffffffffffffff168373ffffffffffffffffffffffffffffffffffffffff161415610f8c576040517f08c379a0000000000000000000000000000000000000000000000000000000008152600401610f8390612448565b60405180910390fd5b600073ffffffffffffffffffffffffffffffffffffffff168273ffffffffffffffffffffffffffffffffffffffff161415610ffc576040517f08c379a0000000000000000000000000000000000000000000000000000000008152600401610ff390612308565b60405180910390fd5b80603460008573ffffffffffffffffffffffffffffffffffffffff1673ffffffffffffffffffffffffffffffffffffffff16815260200190815260200160002060008473ffffffffffffffffffffffffffffffffffffffff1673ffffffffffffffffffffffffffffffffffffffff168152602001908152602001600020819055508173ffffffffffffffffffffffffffffffffffffffff168373ffffffffffffffffffffffffffffffffffffffff167f8c5be1e5ebec7d5bd14f71427d1e84f3dd0314c0f7b2291e5b200ac8c7c3b925836040516110da91906124c8565b60405180910390a3505050565b600073ffffffffffffffffffffffffffffffffffffffff168373ffffffffffffffffffffffffffffffffffffffff161415611157576040517f08c379a000000000000000000000000000000000000000000000000000000000815260040161114e90612428565b60405180910390fd5b600073ffffffffffffffffffffffffffffffffffffffff168273ffffffffffffffffffffffffffffffffffffffff1614156111c7576040517f08c379a00000000000000000000000000000000000000000000000000000000081526004016111be906122a8565b60405180910390fd5b6111d2838383611910565b6000603360008573ffffffffffffffffffffffffffffffffffffffff1673ffffffffffffffffffffffffffffffffffffffff16815260200190815260200160002054905081811015611259576040517f08c379a000000000000000000000000000000000000000000000000000000000815260040161125090612348565b60405180910390fd5b818103603360008673ffffffffffffffffffffffffffffffffffffffff1673ffffffffffffffffffffffffffffffffffffffff1681526020019081526020016000208190555081603360008573ffffffffffffffffffffffffffffffffffffffff1673ffffffffffffffffffffffffffffffffffffffff16815260200190815260200160002060008282546112ee9190612586565b925050819055508273ffffffffffffffffffffffffffffffffffffffff168473ffffffffffffffffffffffffffffffffffffffff167fddf252ad1be2c89b69c2b068fc378daa952ba7f163c4a11628f55a4df523b3ef8460405161135291906124c8565b60405180910390a3611365848484611915565b50505050565b60006113997f360894a13ba1a3210667c828492db98dca3e2076cc3735a920a3ca505d382bbc60001b61191a565b60000160009054906101000a900473ffffffffffffffffffffffffffffffffffffffff16905090565b6113ca610f14565b73ffffffffffffffffffffffffffffffffffffffff166113e8610bd0565b73ffffffffffffffffffffffffffffffffffffffff161461143e576040517f08c379a0000000000000000000000000000000000000000000000000000000008152600401611435906123e8565b60405180910390fd5b50565b600061144b61136b565b905061145684611924565b6000835111806114635750815b156114745761147284846119dd565b505b60006114a27f4910fdfa16fed3260ed0e7147f7cc6da11a60208b5b9406d12a635614ffd914360001b611ac1565b90508060000160009054906101000a900460ff1661160b5760018160000160006101000a81548160ff02191690831515021790555061156e85836040516024016114ec9190612250565b6040516020818303038152906040527f3659cfe6000000000000000000000000000000000000000000000000000000007bffffffffffffffffffffffffffffffffffffffffffffffffffffffff19166020820180517bffffffffffffffffffffffffffffffffffffffffffffffffffffffff83818316178352505050506119dd565b5060008160000160006101000a81548160ff02191690831515021790555061159461136b565b73ffffffffffffffffffffffffffffffffffffffff168273ffffffffffffffffffffffffffffffffffffffff1614611601576040517f08c379a00000000000000000000000000000000000000000000000000000000081526004016115f8906122c8565b60405180910390fd5b61160a85611acb565b5b5050505050565b600060c960009054906101000a900473ffffffffffffffffffffffffffffffffffffffff1690508160c960006101000a81548173ffffffffffffffffffffffffffffffffffffffff021916908373ffffffffffffffffffffffffffffffffffffffff1602179055508173ffffffffffffffffffffffffffffffffffffffff168173ffffffffffffffffffffffffffffffffffffffff167f8be0079c531659141344cd1fd0a4f28419497f9722a3daafe3b4186f6b6457e060405160405180910390a35050565b60006116e330611b1a565b15905090565b600060019054906101000a900460ff16611738576040517f08c379a000000000000000000000000000000000000000000000000000000000815260040161172f90612468565b60405180910390fd5b611740611b2d565b61174a8282611b7e565b5050565b600060019054906101000a900460ff1661179d576040517f08c379a000000000000000000000000000000000000000000000000000000000815260040161179490612468565b60405180910390fd5b6117a5611b2d565b6117ad611bff565b565b600073ffffffffffffffffffffffffffffffffffffffff168273ffffffffffffffffffffffffffffffffffffffff16141561181f576040517f08c379a0000000000000000000000000000000000000000000000000000000008152600401611816906124a8565b60405180910390fd5b61182b60008383611910565b806035600082825461183d9190612586565b9250508190555080603360008473ffffffffffffffffffffffffffffffffffffffff1673ffffffffffffffffffffffffffffffffffffffff16815260200190815260200160002060008282546118939190612586565b925050819055508173ffffffffffffffffffffffffffffffffffffffff16600073ffffffffffffffffffffffffffffffffffffffff167fddf252ad1be2c89b69c2b068fc378daa952ba7f163c4a11628f55a4df523b3ef836040516118f891906124c8565b60405180910390a361190c60008383611915565b5050565b505050565b505050565b6000819050919050565b61192d81611b1a565b61196c576040517f08c379a0000000000000000000000000000000000000000000000000000000008152600401611963906123a8565b60405180910390fd5b806119997f360894a13ba1a3210667c828492db98dca3e2076cc3735a920a3ca505d382bbc60001b61191a565b60000160006101000a81548173ffffffffffffffffffffffffffffffffffffffff021916908373ffffffffffffffffffffffffffffffffffffffff16021790555050565b60606119e883611b1a565b611a27576040517f08c379a0000000000000000000000000000000000000000000000000000000008152600401611a1e90612408565b60405180910390fd5b6000808473ffffffffffffffffffffffffffffffffffffffff1684604051611a4f9190612239565b600060405180830381855af49150503d8060008114611a8a576040519150601f19603f3d011682016040523d82523d6000602084013e611a8f565b606091505b5091509150611ab78282604051806060016040528060278152602001612e6e60279139611c60565b9250505092915050565b6000819050919050565b611ad481611924565b8073ffffffffffffffffffffffffffffffffffffffff167fbc7cd75a20ee27fd9adebab32041f755214dbc6bffa90cc0225b39da2e5c2d3b60405160405180910390a250565b600080823b905060008111915050919050565b600060019054906101000a900460ff16611b7c576040517f08c379a0000000000000000000000000000000000000000000000000000000008152600401611b7390612468565b60405180910390fd5b565b600060019054906101000a900460ff16611bcd576040517f08c379a0000000000000000000000000000000000000000000000000000000008152600401611bc490612468565b60405180910390fd5b8160369080519060200190611be3929190611cc7565b508060379080519060200190611bfa929190611cc7565b505050565b600060019054906101000a900460ff16611c4e576040517f08c379a0000000000000000000000000000000000000000000000000000000008152600401611c4590612468565b60405180910390fd5b611c5e611c59610f14565b611612565b565b60608315611c7057829050611cc0565b600083511115611c835782518084602001fd5b816040517f08c379a0000000000000000000000000000000000000000000000000000000008152600401611cb79190612286565b60405180910390fd5b9392505050565b828054611cd39061283e565b90600052602060002090601f016020900481019282611cf55760008555611d3c565b82601f10611d0e57805160ff1916838001178555611d3c565b82800160010185558215611d3c579182015b82811115611d3b578251825591602001919060010190611d20565b5b509050611d499190611d4d565b5090565b5b80821115611d66576000816000905550600101611d4e565b5090565b6000611d7d611d7884612523565b6124fe565b905082815260208101848484011115611d9557600080fd5b611da08482856127fc565b509392505050565b600081359050611db781612e3f565b92915050565b600082601f830112611dce57600080fd5b8135611dde848260208601611d6a565b91505092915050565b600081359050611df681612e56565b92915050565b600060208284031215611e0e57600080fd5b6000611e1c84828501611da8565b91505092915050565b60008060408385031215611e3857600080fd5b6000611e4685828601611da8565b9250506020611e5785828601611da8565b9150509250929050565b600080600060608486031215611e7657600080fd5b6000611e8486828701611da8565b9350506020611e9586828701611da8565b9250506040611ea686828701611de7565b9150509250925092565b60008060408385031215611ec357600080fd5b6000611ed185828601611da8565b925050602083013567ffffffffffffffff811115611eee57600080fd5b611efa85828601611dbd565b9150509250929050565b60008060408385031215611f1757600080fd5b6000611f2585828601611da8565b9250506020611f3685828601611de7565b9150509250929050565b611f49816127a7565b82525050565b611f58816127b9565b82525050565b6000611f6982612554565b611f73818561256a565b9350611f8381856020860161280b565b80840191505092915050565b6000611f9a8261255f565b611fa48185612575565b9350611fb481856020860161280b565b611fbd8161292e565b840191505092915050565b6000611fd5602383612575565b9150611fe08261294c565b604082019050919050565b6000611ff8602f83612575565b91506120038261299b565b604082019050919050565b600061201b602683612575565b9150612026826129ea565b604082019050919050565b600061203e602283612575565b915061204982612a39565b604082019050919050565b6000612061602c83612575565b915061206c82612a88565b604082019050919050565b6000612084602683612575565b915061208f82612ad7565b604082019050919050565b60006120a7602c83612575565b91506120b282612b26565b604082019050919050565b60006120ca602e83612575565b91506120d582612b75565b604082019050919050565b60006120ed602d83612575565b91506120f882612bc4565b604082019050919050565b6000612110602883612575565b915061211b82612c13565b604082019050919050565b6000612133602083612575565b915061213e82612c62565b602082019050919050565b6000612156602683612575565b915061216182612c8b565b604082019050919050565b6000612179602583612575565b915061218482612cda565b604082019050919050565b600061219c602483612575565b91506121a782612d29565b604082019050919050565b60006121bf602b83612575565b91506121ca82612d78565b604082019050919050565b60006121e2602583612575565b91506121ed82612dc7565b604082019050919050565b6000612205601f83612575565b915061221082612e16565b602082019050919050565b612224816127e5565b82525050565b612233816127ef565b82525050565b60006122458284611f5e565b915081905092915050565b60006020820190506122656000830184611f40565b92915050565b60006020820190506122806000830184611f4f565b92915050565b600060208201905081810360008301526122a08184611f8f565b905092915050565b600060208201905081810360008301526122c181611fc8565b9050919050565b600060208201905081810360008301526122e181611feb565b9050919050565b600060208201905081810360008301526123018161200e565b9050919050565b6000602082019050818103600083015261232181612031565b9050919050565b6000602082019050818103600083015261234181612054565b9050919050565b6000602082019050818103600083015261236181612077565b9050919050565b600060208201905081810360008301526123818161209a565b9050919050565b600060208201905081810360008301526123a1816120bd565b9050919050565b600060208201905081810360008301526123c1816120e0565b9050919050565b600060208201905081810360008301526123e181612103565b9050919050565b6000602082019050818103600083015261240181612126565b9050919050565b6000602082019050818103600083015261242181612149565b9050919050565b600060208201905081810360008301526124418161216c565b9050919050565b600060208201905081810360008301526124618161218f565b9050919050565b60006020820190508181036000830152612481816121b2565b9050919050565b600060208201905081810360008301526124a1816121d5565b9050919050565b600060208201905081810360008301526124c1816121f8565b9050919050565b60006020820190506124dd600083018461221b565b92915050565b60006020820190506124f8600083018461222a565b92915050565b6000612508612519565b90506125148282612870565b919050565b6000604051905090565b600067ffffffffffffffff82111561253e5761253d6128ff565b5b6125478261292e565b9050602081019050919050565b600081519050919050565b600081519050919050565b600081905092915050565b600082825260208201905092915050565b6000612591826127e5565b915061259c836127e5565b9250827fffffffffffffffffffffffffffffffffffffffffffffffffffffffffffffffff038211156125d1576125d06128a1565b5b828201905092915050565b6000808291508390505b600185111561262657808604811115612602576126016128a1565b5b60018516156126115780820291505b808102905061261f8561293f565b94506125e6565b94509492505050565b600061263a826127e5565b9150612645836127ef565b92506126727fffffffffffffffffffffffffffffffffffffffffffffffffffffffffffffffff848461267a565b905092915050565b60008261268a5760019050612746565b816126985760009050612746565b81600181146126ae57600281146126b8576126e7565b6001915050612746565b60ff8411156126ca576126c96128a1565b5b8360020a9150848211156126e1576126e06128a1565b5b50612746565b5060208310610133831016604e8410600b841016171561271c5782820a905083811115612717576127166128a1565b5b612746565b61272984848460016125dc565b925090508184048111156127405761273f6128a1565b5b81810290505b9392505050565b6000612758826127e5565b9150612763836127e5565b9250817fffffffffffffffffffffffffffffffffffffffffffffffffffffffffffffffff048311821515161561279c5761279b6128a1565b5b828202905092915050565b60006127b2826127c5565b9050919050565b60008115159050919050565b600073ffffffffffffffffffffffffffffffffffffffff82169050919050565b6000819050919050565b600060ff82169050919050565b82818337600083830152505050565b60005b8381101561282957808201518184015260208101905061280e565b83811115612838576000848401525b50505050565b6000600282049050600182168061285657607f821691505b6020821081141561286a576128696128d0565b5b50919050565b6128798261292e565b810181811067ffffffffffffffff82111715612898576128976128ff565b5b80604052505050565b7f4e487b7100000000000000000000000000000000000000000000000000000000600052601160045260246000fd5b7f4e487b7100000000000000000000000000000000000000000000000000000000600052602260045260246000fd5b7f4e487b7100000000000000000000000000000000000000000000000000000000600052604160045260246000fd5b6000601f19601f8301169050919050565b60008160011c9050919050565b7f45524332303a207472616e7366657220746f20746865207a65726f206164647260008201527f6573730000000000000000000000000000000000000000000000000000000000602082015250565b7f45524331393637557067726164653a207570677261646520627265616b73206660008201527f7572746865722075706772616465730000000000000000000000000000000000602082015250565b7f4f776e61626c653a206e6577206f776e657220697320746865207a65726f206160008201527f6464726573730000000000000000000000000000000000000000000000000000602082015250565b7f45524332303a20617070726f766520746f20746865207a65726f20616464726560008201527f7373000000000000000000000000000000000000000000000000000000000000602082015250565b7f46756e6374696f6e206d7573742062652063616c6c6564207468726f7567682060008201527f64656c656761746563616c6c0000000000000000000000000000000000000000602082015250565b7f45524332303a207472616e7366657220616d6f756e742065786365656473206260008201527f616c616e63650000000000000000000000000000000000000000000000000000602082015250565b7f46756e6374696f6e206d7573742062652063616c6c6564207468726f7567682060008201527f6163746976652070726f78790000000000000000000000000000000000000000602082015250565b7f496e697469616c697a61626c653a20636f6e747261637420697320616c72656160008201527f647920696e697469616c697a6564000000000000000000000000000000000000602082015250565b7f455243313936373a206e657720696d706c656d656e746174696f6e206973206e60008201527f6f74206120636f6e747261637400000000000000000000000000000000000000602082015250565b7f45524332303a207472616e7366657220616d6f756e742065786365656473206160008201527f6c6c6f77616e6365000000000000000000000000000000000000000000000000602082015250565b7f4f776e61626c653a2063616c6c6572206973206e6f7420746865206f776e6572600082015250565b7f416464726573733a2064656c65676174652063616c6c20746f206e6f6e2d636f60008201527f6e74726163740000000000000000000000000000000000000000000000000000602082015250565b7f45524332303a207472616e736665722066726f6d20746865207a65726f20616460008201527f6472657373000000000000000000000000000000000000000000000000000000602082015250565b7f45524332303a20617070726f76652066726f6d20746865207a65726f2061646460008201527f7265737300000000000000000000000000000000000000000000000000000000602082015250565b7f496e697469616c697a61626c653a20636f6e7472616374206973206e6f74206960008201527f6e697469616c697a696e67000000000000000000000000000000000000000000602082015250565b7f45524332303a2064656372656173656420616c6c6f77616e63652062656c6f7760008201527f207a65726f000000000000000000000000000000000000000000000000000000602082015250565b7f45524332303a206d696e7420746f20746865207a65726f206164647265737300600082015250565b612e48816127a7565b8114612e5357600080fd5b50565b612e5f816127e5565b8114612e6a57600080fd5b5056fe416464726573733a206c6f772d6c6576656c2064656c65676174652063616c6c206661696c6564a264697066735822122046ac06a3b03e8ca4ac8606ad7bc19abbdc7ac58e9287cccac9a61b17e48486c464736f6c63430008040033",
  "immutableReferences": {
    "641": [
      {
        "length": 32,
        "start": 1502
      },
      {
        "length": 32,
        "start": 1645
      },
      {
        "length": 32,
        "start": 2105
      },
      {
        "length": 32,
        "start": 2248
      }
    ]
  },
  "source": "// SPDX-License-Identifier: MIT\npragma solidity ^0.8.2;\n\nimport \"@openzeppelin/contracts-upgradeable/proxy/utils/Initializable.sol\";\nimport \"@openzeppelin/contracts-upgradeable/token/ERC20/ERC20Upgradeable.sol\";\nimport \"@openzeppelin/contracts-upgradeable/proxy/utils/UUPSUpgradeable.sol\";\nimport \"@openzeppelin/contracts-upgradeable/access/OwnableUpgradeable.sol\";\n\ncontract Mars is Initializable,ERC20Upgradeable,UUPSUpgradeable,OwnableUpgradeable  {\n    function initialize() public initializer {\n         __ERC20_init(\"Mars\", \"MARS\");\n        __Ownable_init();\n        _mint(msg.sender, 10000000 * 10 ** decimals());\n        \n    }\n\n    function _authorizeUpgrade(address newImplementation) internal override onlyOwner{}\n}\n\ncontract MarsV2 is Mars{\n    uint private  fee;\n    function setFee(uint val) external {\n        fee = val;\n    }\n    function getFee() external  view  returns(uint){\n        return fee;\n    }\n    function version() public virtual  pure  returns(string memory){\n        return \"v2!\";\n    }\n}\n\ncontract MarsV3 is MarsV2{\n    function  version() public virtual override pure  returns(string memory){\n        return \"v3!\";\n    }\n}\n\ncontract MarsV4 is MarsV3{\n    function  version() public virtual override pure  returns(string memory){\n        return \"v4!\";\n    }\n}\n\ncontract MarsV5 is MarsV4{\n    function  version() public virtual override pure  returns(string memory){\n        return \"v5!\";\n    }\n}",
  "sourcePath": "/home/jmint/uups_truffle/contracts/Mars.sol",
  "compiler": {
    "name": "solc",
    "version": "0.8.4+commit.c7e474f2.Emscripten.clang"
  },
  "schemaVersion": "3.4.3",
  "updatedAt": "2022-01-28T09:12:28.837Z",
  "devdoc": {
    "kind": "dev",
    "methods": {
      "allowance(address,address)": {
        "details": "See {IERC20-allowance}."
      },
      "approve(address,uint256)": {
        "details": "See {IERC20-approve}. Requirements: - `spender` cannot be the zero address."
      },
      "balanceOf(address)": {
        "details": "See {IERC20-balanceOf}."
      },
      "decimals()": {
        "details": "Returns the number of decimals used to get its user representation. For example, if `decimals` equals `2`, a balance of `505` tokens should be displayed to a user as `5.05` (`505 / 10 ** 2`). Tokens usually opt for a value of 18, imitating the relationship between Ether and Wei. This is the value {ERC20} uses, unless this function is overridden; NOTE: This information is only used for _display_ purposes: it in no way affects any of the arithmetic of the contract, including {IERC20-balanceOf} and {IERC20-transfer}."
      },
      "decreaseAllowance(address,uint256)": {
        "details": "Atomically decreases the allowance granted to `spender` by the caller. This is an alternative to {approve} that can be used as a mitigation for problems described in {IERC20-approve}. Emits an {Approval} event indicating the updated allowance. Requirements: - `spender` cannot be the zero address. - `spender` must have allowance for the caller of at least `subtractedValue`."
      },
      "increaseAllowance(address,uint256)": {
        "details": "Atomically increases the allowance granted to `spender` by the caller. This is an alternative to {approve} that can be used as a mitigation for problems described in {IERC20-approve}. Emits an {Approval} event indicating the updated allowance. Requirements: - `spender` cannot be the zero address."
      },
      "name()": {
        "details": "Returns the name of the token."
      },
      "owner()": {
        "details": "Returns the address of the current owner."
      },
      "renounceOwnership()": {
        "details": "Leaves the contract without owner. It will not be possible to call `onlyOwner` functions anymore. Can only be called by the current owner. NOTE: Renouncing ownership will leave the contract without an owner, thereby removing any functionality that is only available to the owner."
      },
      "symbol()": {
        "details": "Returns the symbol of the token, usually a shorter version of the name."
      },
      "totalSupply()": {
        "details": "See {IERC20-totalSupply}."
      },
      "transfer(address,uint256)": {
        "details": "See {IERC20-transfer}. Requirements: - `recipient` cannot be the zero address. - the caller must have a balance of at least `amount`."
      },
      "transferFrom(address,address,uint256)": {
        "details": "See {IERC20-transferFrom}. Emits an {Approval} event indicating the updated allowance. This is not required by the EIP. See the note at the beginning of {ERC20}. Requirements: - `sender` and `recipient` cannot be the zero address. - `sender` must have a balance of at least `amount`. - the caller must have allowance for ``sender``'s tokens of at least `amount`."
      },
      "transferOwnership(address)": {
        "details": "Transfers ownership of the contract to a new account (`newOwner`). Can only be called by the current owner."
      },
      "upgradeTo(address)": {
        "details": "Upgrade the implementation of the proxy to `newImplementation`. Calls {_authorizeUpgrade}. Emits an {Upgraded} event."
      },
      "upgradeToAndCall(address,bytes)": {
        "details": "Upgrade the implementation of the proxy to `newImplementation`, and subsequently execute the function call encoded in `data`. Calls {_authorizeUpgrade}. Emits an {Upgraded} event."
      }
    },
    "version": 1
  },
  "userdoc": {
    "kind": "user",
    "methods": {},
    "version": 1
  }
}